{
  "contractName": "Lottery",
  "abi": [
    {
      "inputs": [
        {
          "internalType": "uint256",
          "name": "_amount",
          "type": "uint256"
        }
      ],
      "stateMutability": "nonpayable",
      "type": "constructor"
    },
    {
      "anonymous": false,
      "inputs": [
        {
          "indexed": true,
          "internalType": "address",
          "name": "user",
          "type": "address"
        },
        {
          "indexed": false,
          "internalType": "uint256",
          "name": "betAmount",
          "type": "uint256"
        }
      ],
      "name": "betComplete",
      "type": "event"
    },
    {
      "inputs": [],
      "name": "amount",
      "outputs": [
        {
          "internalType": "uint256",
          "name": "",
          "type": "uint256"
        }
      ],
      "stateMutability": "view",
      "type": "function",
      "constant": true
    },
    {
      "inputs": [],
      "name": "bet",
      "outputs": [
        {
          "internalType": "bool",
          "name": "",
          "type": "bool"
        }
      ],
      "stateMutability": "payable",
      "type": "function",
      "payable": true
    },
    {
      "inputs": [],
      "name": "result",
      "outputs": [
        {
          "internalType": "bool",
          "name": "",
          "type": "bool"
        }
      ],
      "stateMutability": "nonpayable",
      "type": "function"
    }
  ],
  "bytecode": "0x608060405234801561001057600080fd5b50604051610a89380380610a898339818101604052602081101561003357600080fd5b810190808051906020019092919050505033600160006101000a81548173ffffffffffffffffffffffffffffffffffffffff021916908373ffffffffffffffffffffffffffffffffffffffff160217905550806000819055506000600460006101000a81548160ff0219169083151502179055506000600460016101000a81548160ff021916908315150217905550506109b7806100d26000396000f3fe6080604052600436106100345760003560e01c806311610c25146100395780636537214714610059578063aa8c217c14610086575b600080fd5b6100416100b1565b60405180821515815260200191505060405180910390f35b34801561006557600080fd5b5061006e61044b565b60405180821515815260200191505060405180910390f35b34801561009257600080fd5b5061009b61097b565b6040518082815260200191505060405180910390f35b6000600160009054906101000a900473ffffffffffffffffffffffffffffffffffffffff1673ffffffffffffffffffffffffffffffffffffffff163373ffffffffffffffffffffffffffffffffffffffff161415610177576040517f08c379a00000000000000000000000000000000000000000000000000000000081526004018080602001828103825260118152602001807f4f776e65722063616e206e6f742062657400000000000000000000000000000081525060200191505060405180910390fd5b60038080549050106101f1576040517f08c379a00000000000000000000000000000000000000000000000000000000081526004018080602001828103825260148152602001807f4f6e6c79203320757365727320616c6c6f77656400000000000000000000000081525060200191505060405180910390fd5b600260003373ffffffffffffffffffffffffffffffffffffffff1673ffffffffffffffffffffffffffffffffffffffff16815260200190815260200160002060009054906101000a900460ff16156102b1576040517f08c379a00000000000000000000000000000000000000000000000000000000081526004018080602001828103825260148152602001807f596f7520686176652062657420616c726561647900000000000000000000000081525060200191505060405180910390fd5b600054670de0b6b3a764000034816102c557fe5b0414610339576040517f08c379a000000000000000000000000000000000000000000000000000000000815260040180806020018281038252601c8152602001807f4e6f742073756666696369656e7420616d6f756e7420746f206265740000000081525060200191505060405180910390fd5b6001600260003373ffffffffffffffffffffffffffffffffffffffff1673ffffffffffffffffffffffffffffffffffffffff16815260200190815260200160002060006101000a81548160ff0219169083151502179055506003339080600181540180825580915050600190039060005260206000200160009091909190916101000a81548173ffffffffffffffffffffffffffffffffffffffff021916908373ffffffffffffffffffffffffffffffffffffffff1602179055503373ffffffffffffffffffffffffffffffffffffffff167feed8753ac0be89634ca92c470f66ddb597c1f37844aeb4dbae447fc81020b1116000546040518082815260200191505060405180910390a26001905090565b6000600460019054906101000a900460ff16156104d0576040517f08c379a00000000000000000000000000000000000000000000000000000000081526004018080602001828103825260178152602001807f526573756c7420616c7265616479206465636c6172656400000000000000000081525060200191505060405180910390fd5b600160009054906101000a900473ffffffffffffffffffffffffffffffffffffffff1673ffffffffffffffffffffffffffffffffffffffff163373ffffffffffffffffffffffffffffffffffffffff1614610593576040517f08c379a000000000000000000000000000000000000000000000000000000000815260040180806020018281038252600e8152602001807f4e6f7420617574686f726973656400000000000000000000000000000000000081525060200191505060405180910390fd5b600380805490501461060d576040517f08c379a000000000000000000000000000000000000000000000000000000000815260040180806020018281038252601a8152602001807f4e6f7420616c6c2075736572732068617665206265742079657400000000000081525060200191505060405180910390fd5b600460009054906101000a900460ff1615610690576040517f08c379a000000000000000000000000000000000000000000000000000000000815260040180806020018281038252601d8152602001807f4f776e65722068617320676f74207468652066656520616c726561647900000081525060200191505060405180910390fd5b60006064478161069c57fe5b0490506001600460006101000a81548160ff021916908315150217905550600160009054906101000a900473ffffffffffffffffffffffffffffffffffffffff1673ffffffffffffffffffffffffffffffffffffffff166108fc829081150290604051600060405180830381858888f19350505050158015610722573d6000803e3d6000fd5b5060006003428161072f57fe5b0690506001600460016101000a81548160ff02191690831515021790555060006003600247028161075c57fe5b0490506000814703905060028314610872576003838154811061077b57fe5b9060005260206000200160009054906101000a900473ffffffffffffffffffffffffffffffffffffffff1673ffffffffffffffffffffffffffffffffffffffff166108fc839081150290604051600060405180830381858888f193505050501580156107eb573d6000803e3d6000fd5b50600360018401815481106107fc57fe5b9060005260206000200160009054906101000a900473ffffffffffffffffffffffffffffffffffffffff1673ffffffffffffffffffffffffffffffffffffffff166108fc829081150290604051600060405180830381858888f1935050505015801561086c573d6000803e3d6000fd5b50610970565b6003838154811061087f57fe5b9060005260206000200160009054906101000a900473ffffffffffffffffffffffffffffffffffffffff1673ffffffffffffffffffffffffffffffffffffffff166108fc839081150290604051600060405180830381858888f193505050501580156108ef573d6000803e3d6000fd5b5060036000815481106108fe57fe5b9060005260206000200160009054906101000a900473ffffffffffffffffffffffffffffffffffffffff1673ffffffffffffffffffffffffffffffffffffffff166108fc829081150290604051600060405180830381858888f1935050505015801561096e573d6000803e3d6000fd5b505b600194505050505090565b6000548156fea2646970667358221220a6dd70b11c5299977642c94b11a44cb161c5c8d7f113430591281df779dffdd864736f6c63430007060033",
  "immutableReferences": {},
  "source": "pragma solidity >=0.7.0;\n\ncontract Lottery {\n    \n    uint public amount;\n    address payable owner;\n    mapping(address => bool) users;\n    address payable[] usersList;\n    bool feeTransferredToOwner;\n    bool resultDeclared;\n    event betComplete(address indexed user, uint betAmount);\n    \n\n    constructor(uint _amount) {\n        owner = msg.sender;\n        amount = _amount;\n        feeTransferredToOwner = false;\n        resultDeclared = false;\n    }\n    \n    function bet() public payable returns(bool) {\n        require(msg.sender != owner, \"Owner can not bet\");\n        require(usersList.length < 3, \"Only 3 users allowed\");\n        require(!users[msg.sender], \"You have bet already\");\n        require(msg.value/10**18 == amount, \"Not sufficient amount to bet\");\n        users[msg.sender] = true;\n        usersList.push(msg.sender);\n        emit betComplete(msg.sender, amount);\n        return true;\n    }\n    \n    function result() public returns(bool) {\n        require(!resultDeclared, \"Result already declared\");\n        require(msg.sender == owner, \"Not authorised\");\n        require(usersList.length == 3, \"Not all users have bet yet\");\n        require(!feeTransferredToOwner, \"Owner has got the fee already\");\n        uint feeToOwner = (address(this).balance)/100;\n        feeTransferredToOwner = true;\n        owner.transfer(feeToOwner);\n        uint randomWinner = block.timestamp%3;\n        resultDeclared = true;\n        uint winnerPrize = ((address(this).balance)*2)/3;\n        uint runnerUpPrize = address(this).balance - winnerPrize;\n        \n        \n        if(randomWinner != 2) {\n            usersList[randomWinner].transfer(winnerPrize);\n            usersList[randomWinner + 1].transfer(runnerUpPrize); \n        } else {\n            usersList[randomWinner].transfer(winnerPrize);\n            usersList[0].transfer(runnerUpPrize);\n        }\n        return true;\n    }\n}",
  "sourcePath": "/home/kuldeep/ETHEREUM/spectral-finance/q2/contracts/Lottery.sol",
  "compiler": {
    "name": "solc",
    "version": "0.7.6+commit.7338295f.Emscripten.clang"
  },
  "schemaVersion": "3.2.5",
  "updatedAt": "2020-12-28T05:16:05.332Z",
  "networkType": "ethereum",
  "devdoc": {
    "kind": "dev",
    "methods": {},
    "version": 1
  },
  "userdoc": {
    "kind": "user",
    "methods": {},
    "version": 1
  }
}